{
  "_format": "hh-sol-artifact-1",
  "contractName": "MagaNFT",
  "sourceName": "contracts/MagaNFT.sol",
  "abi": [
    {
      "inputs": [
        {
          "internalType": "address",
          "name": "initialOwner",
          "type": "address"
        }
      ],
      "stateMutability": "nonpayable",
      "type": "constructor"
    },
    {
      "inputs": [
        {
          "internalType": "address",
          "name": "sender",
          "type": "address"
        },
        {
          "internalType": "uint256",
          "name": "tokenId",
          "type": "uint256"
        },
        {
          "internalType": "address",
          "name": "owner",
          "type": "address"
        }
      ],
      "name": "ERC721IncorrectOwner",
      "type": "error"
    },
    {
      "inputs": [
        {
          "internalType": "address",
          "name": "operator",
          "type": "address"
        },
        {
          "internalType": "uint256",
          "name": "tokenId",
          "type": "uint256"
        }
      ],
      "name": "ERC721InsufficientApproval",
      "type": "error"
    },
    {
      "inputs": [
        {
          "internalType": "address",
          "name": "approver",
          "type": "address"
        }
      ],
      "name": "ERC721InvalidApprover",
      "type": "error"
    },
    {
      "inputs": [
        {
          "internalType": "address",
          "name": "operator",
          "type": "address"
        }
      ],
      "name": "ERC721InvalidOperator",
      "type": "error"
    },
    {
      "inputs": [
        {
          "internalType": "address",
          "name": "owner",
          "type": "address"
        }
      ],
      "name": "ERC721InvalidOwner",
      "type": "error"
    },
    {
      "inputs": [
        {
          "internalType": "address",
          "name": "receiver",
          "type": "address"
        }
      ],
      "name": "ERC721InvalidReceiver",
      "type": "error"
    },
    {
      "inputs": [
        {
          "internalType": "address",
          "name": "sender",
          "type": "address"
        }
      ],
      "name": "ERC721InvalidSender",
      "type": "error"
    },
    {
      "inputs": [
        {
          "internalType": "uint256",
          "name": "tokenId",
          "type": "uint256"
        }
      ],
      "name": "ERC721NonexistentToken",
      "type": "error"
    },
    {
      "inputs": [
        {
          "internalType": "address",
          "name": "owner",
          "type": "address"
        }
      ],
      "name": "OwnableInvalidOwner",
      "type": "error"
    },
    {
      "inputs": [
        {
          "internalType": "address",
          "name": "account",
          "type": "address"
        }
      ],
      "name": "OwnableUnauthorizedAccount",
      "type": "error"
    },
    {
      "anonymous": false,
      "inputs": [
        {
          "indexed": true,
          "internalType": "address",
          "name": "owner",
          "type": "address"
        },
        {
          "indexed": true,
          "internalType": "address",
          "name": "approved",
          "type": "address"
        },
        {
          "indexed": true,
          "internalType": "uint256",
          "name": "tokenId",
          "type": "uint256"
        }
      ],
      "name": "Approval",
      "type": "event"
    },
    {
      "anonymous": false,
      "inputs": [
        {
          "indexed": true,
          "internalType": "address",
          "name": "owner",
          "type": "address"
        },
        {
          "indexed": true,
          "internalType": "address",
          "name": "operator",
          "type": "address"
        },
        {
          "indexed": false,
          "internalType": "bool",
          "name": "approved",
          "type": "bool"
        }
      ],
      "name": "ApprovalForAll",
      "type": "event"
    },
    {
      "anonymous": false,
      "inputs": [
        {
          "indexed": false,
          "internalType": "uint256",
          "name": "_fromTokenId",
          "type": "uint256"
        },
        {
          "indexed": false,
          "internalType": "uint256",
          "name": "_toTokenId",
          "type": "uint256"
        }
      ],
      "name": "BatchMetadataUpdate",
      "type": "event"
    },
    {
      "anonymous": false,
      "inputs": [
        {
          "indexed": false,
          "internalType": "uint256",
          "name": "_tokenId",
          "type": "uint256"
        }
      ],
      "name": "MetadataUpdate",
      "type": "event"
    },
    {
      "anonymous": false,
      "inputs": [
        {
          "indexed": true,
          "internalType": "address",
          "name": "to",
          "type": "address"
        },
        {
          "indexed": true,
          "internalType": "uint256",
          "name": "tokenId",
          "type": "uint256"
        },
        {
          "indexed": false,
          "internalType": "string",
          "name": "uri",
          "type": "string"
        }
      ],
      "name": "Minted",
      "type": "event"
    },
    {
      "anonymous": false,
      "inputs": [
        {
          "indexed": true,
          "internalType": "address",
          "name": "previousOwner",
          "type": "address"
        },
        {
          "indexed": true,
          "internalType": "address",
          "name": "newOwner",
          "type": "address"
        }
      ],
      "name": "OwnershipTransferred",
      "type": "event"
    },
    {
      "anonymous": false,
      "inputs": [
        {
          "indexed": true,
          "internalType": "address",
          "name": "from",
          "type": "address"
        },
        {
          "indexed": true,
          "internalType": "address",
          "name": "to",
          "type": "address"
        },
        {
          "indexed": true,
          "internalType": "uint256",
          "name": "tokenId",
          "type": "uint256"
        }
      ],
      "name": "Transfer",
      "type": "event"
    },
    {
      "inputs": [
        {
          "internalType": "address",
          "name": "to",
          "type": "address"
        },
        {
          "internalType": "uint256",
          "name": "tokenId",
          "type": "uint256"
        }
      ],
      "name": "approve",
      "outputs": [],
      "stateMutability": "nonpayable",
      "type": "function"
    },
    {
      "inputs": [
        {
          "internalType": "address",
          "name": "owner",
          "type": "address"
        }
      ],
      "name": "balanceOf",
      "outputs": [
        {
          "internalType": "uint256",
          "name": "",
          "type": "uint256"
        }
      ],
      "stateMutability": "view",
      "type": "function"
    },
    {
      "inputs": [],
      "name": "getAllTokens",
      "outputs": [
        {
          "components": [
            {
              "internalType": "uint256",
              "name": "tokenId",
              "type": "uint256"
            },
            {
              "internalType": "string",
              "name": "tokenURI",
              "type": "string"
            }
          ],
          "internalType": "struct MagaNFT.NFTData[]",
          "name": "",
          "type": "tuple[]"
        }
      ],
      "stateMutability": "view",
      "type": "function"
    },
    {
      "inputs": [
        {
          "internalType": "uint256",
          "name": "tokenId",
          "type": "uint256"
        }
      ],
      "name": "getApproved",
      "outputs": [
        {
          "internalType": "address",
          "name": "",
          "type": "address"
        }
      ],
      "stateMutability": "view",
      "type": "function"
    },
    {
      "inputs": [
        {
          "internalType": "address",
          "name": "owner",
          "type": "address"
        },
        {
          "internalType": "address",
          "name": "operator",
          "type": "address"
        }
      ],
      "name": "isApprovedForAll",
      "outputs": [
        {
          "internalType": "bool",
          "name": "",
          "type": "bool"
        }
      ],
      "stateMutability": "view",
      "type": "function"
    },
    {
      "inputs": [
        {
          "internalType": "address",
          "name": "recipient",
          "type": "address"
        },
        {
          "internalType": "string",
          "name": "tokenURI",
          "type": "string"
        }
      ],
      "name": "mintNFT",
      "outputs": [
        {
          "internalType": "uint256",
          "name": "",
          "type": "uint256"
        }
      ],
      "stateMutability": "nonpayable",
      "type": "function"
    },
    {
      "inputs": [],
      "name": "name",
      "outputs": [
        {
          "internalType": "string",
          "name": "",
          "type": "string"
        }
      ],
      "stateMutability": "view",
      "type": "function"
    },
    {
      "inputs": [],
      "name": "owner",
      "outputs": [
        {
          "internalType": "address",
          "name": "",
          "type": "address"
        }
      ],
      "stateMutability": "view",
      "type": "function"
    },
    {
      "inputs": [
        {
          "internalType": "uint256",
          "name": "tokenId",
          "type": "uint256"
        }
      ],
      "name": "ownerOf",
      "outputs": [
        {
          "internalType": "address",
          "name": "",
          "type": "address"
        }
      ],
      "stateMutability": "view",
      "type": "function"
    },
    {
      "inputs": [],
      "name": "renounceOwnership",
      "outputs": [],
      "stateMutability": "nonpayable",
      "type": "function"
    },
    {
      "inputs": [
        {
          "internalType": "address",
          "name": "from",
          "type": "address"
        },
        {
          "internalType": "address",
          "name": "to",
          "type": "address"
        },
        {
          "internalType": "uint256",
          "name": "tokenId",
          "type": "uint256"
        }
      ],
      "name": "safeTransferFrom",
      "outputs": [],
      "stateMutability": "nonpayable",
      "type": "function"
    },
    {
      "inputs": [
        {
          "internalType": "address",
          "name": "from",
          "type": "address"
        },
        {
          "internalType": "address",
          "name": "to",
          "type": "address"
        },
        {
          "internalType": "uint256",
          "name": "tokenId",
          "type": "uint256"
        },
        {
          "internalType": "bytes",
          "name": "data",
          "type": "bytes"
        }
      ],
      "name": "safeTransferFrom",
      "outputs": [],
      "stateMutability": "nonpayable",
      "type": "function"
    },
    {
      "inputs": [
        {
          "internalType": "address",
          "name": "operator",
          "type": "address"
        },
        {
          "internalType": "bool",
          "name": "approved",
          "type": "bool"
        }
      ],
      "name": "setApprovalForAll",
      "outputs": [],
      "stateMutability": "nonpayable",
      "type": "function"
    },
    {
      "inputs": [
        {
          "internalType": "bytes4",
          "name": "interfaceId",
          "type": "bytes4"
        }
      ],
      "name": "supportsInterface",
      "outputs": [
        {
          "internalType": "bool",
          "name": "",
          "type": "bool"
        }
      ],
      "stateMutability": "view",
      "type": "function"
    },
    {
      "inputs": [],
      "name": "symbol",
      "outputs": [
        {
          "internalType": "string",
          "name": "",
          "type": "string"
        }
      ],
      "stateMutability": "view",
      "type": "function"
    },
    {
      "inputs": [
        {
          "internalType": "uint256",
          "name": "tokenId",
          "type": "uint256"
        }
      ],
      "name": "tokenURI",
      "outputs": [
        {
          "internalType": "string",
          "name": "",
          "type": "string"
        }
      ],
      "stateMutability": "view",
      "type": "function"
    },
    {
      "inputs": [],
      "name": "totalMinted",
      "outputs": [
        {
          "internalType": "uint256",
          "name": "",
          "type": "uint256"
        }
      ],
      "stateMutability": "view",
      "type": "function"
    },
    {
      "inputs": [
        {
          "internalType": "address",
          "name": "from",
          "type": "address"
        },
        {
          "internalType": "address",
          "name": "to",
          "type": "address"
        },
        {
          "internalType": "uint256",
          "name": "tokenId",
          "type": "uint256"
        }
      ],
      "name": "transferFrom",
      "outputs": [],
      "stateMutability": "nonpayable",
      "type": "function"
    },
    {
      "inputs": [
        {
          "internalType": "address",
          "name": "newOwner",
          "type": "address"
        }
      ],
      "name": "transferOwnership",
      "outputs": [],
      "stateMutability": "nonpayable",
      "type": "function"
    },
    {
      "inputs": [],
      "name": "withdraw",
      "outputs": [],
      "stateMutability": "nonpayable",
      "type": "function"
    }
  ],
  "bytecode": "0x60806040523480156200001157600080fd5b50604051620030be380380620030be833981810160405281019062000037919062000288565b806040518060400160405280600781526020017f4d6167614e4654000000000000000000000000000000000000000000000000008152506040518060400160405280600481526020017f4d4e4654000000000000000000000000000000000000000000000000000000008152508160009081620000b5919062000534565b508060019081620000c7919062000534565b505050600073ffffffffffffffffffffffffffffffffffffffff168173ffffffffffffffffffffffffffffffffffffffff16036200013f5760006040517f1e4fbdf70000000000000000000000000000000000000000000000000000000081526004016200013691906200062c565b60405180910390fd5b62000150816200015860201b60201c565b505062000649565b6000600760009054906101000a900473ffffffffffffffffffffffffffffffffffffffff16905081600760006101000a81548173ffffffffffffffffffffffffffffffffffffffff021916908373ffffffffffffffffffffffffffffffffffffffff1602179055508173ffffffffffffffffffffffffffffffffffffffff168173ffffffffffffffffffffffffffffffffffffffff167f8be0079c531659141344cd1fd0a4f28419497f9722a3daafe3b4186f6b6457e060405160405180910390a35050565b600080fd5b600073ffffffffffffffffffffffffffffffffffffffff82169050919050565b6000620002508262000223565b9050919050565b620002628162000243565b81146200026e57600080fd5b50565b600081519050620002828162000257565b92915050565b600060208284031215620002a157620002a06200021e565b5b6000620002b18482850162000271565b91505092915050565b600081519050919050565b7f4e487b7100000000000000000000000000000000000000000000000000000000600052604160045260246000fd5b7f4e487b7100000000000000000000000000000000000000000000000000000000600052602260045260246000fd5b600060028204905060018216806200033c57607f821691505b602082108103620003525762000351620002f4565b5b50919050565b60008190508160005260206000209050919050565b60006020601f8301049050919050565b600082821b905092915050565b600060088302620003bc7fffffffffffffffffffffffffffffffffffffffffffffffffffffffffffffffff826200037d565b620003c886836200037d565b95508019841693508086168417925050509392505050565b6000819050919050565b6000819050919050565b6000620004156200040f6200040984620003e0565b620003ea565b620003e0565b9050919050565b6000819050919050565b6200043183620003f4565b6200044962000440826200041c565b8484546200038a565b825550505050565b600090565b6200046062000451565b6200046d81848462000426565b505050565b5b8181101562000495576200048960008262000456565b60018101905062000473565b5050565b601f821115620004e457620004ae8162000358565b620004b9846200036d565b81016020851015620004c9578190505b620004e1620004d8856200036d565b83018262000472565b50505b505050565b600082821c905092915050565b60006200050960001984600802620004e9565b1980831691505092915050565b6000620005248383620004f6565b9150826002028217905092915050565b6200053f82620002ba565b67ffffffffffffffff8111156200055b576200055a620002c5565b5b62000567825462000323565b6200057482828562000499565b600060209050601f831160018114620005ac576000841562000597578287015190505b620005a3858262000516565b86555062000613565b601f198416620005bc8662000358565b60005b82811015620005e657848901518255600182019150602085019450602081019050620005bf565b8683101562000606578489015162000602601f891682620004f6565b8355505b6001600288020188555050505b505050505050565b620006268162000243565b82525050565b60006020820190506200064360008301846200061b565b92915050565b612a6580620006596000396000f3fe608060405234801561001057600080fd5b506004361061012c5760003560e01c8063715018a6116100ad578063b88d4fde11610071578063b88d4fde1461030b578063c87b56dd14610327578063e985e9c514610357578063eacabe1414610387578063f2fde38b146103b75761012c565b8063715018a61461028b5780638da5cb5b1461029557806395d89b41146102b3578063a22cb465146102d1578063a2309ff8146102ed5761012c565b80632a5c792a116100f45780632a5c792a146101e75780633ccfd60b1461020557806342842e0e1461020f5780636352211e1461022b57806370a082311461025b5761012c565b806301ffc9a71461013157806306fdde0314610161578063081812fc1461017f578063095ea7b3146101af57806323b872dd146101cb575b600080fd5b61014b60048036038101906101469190611ce0565b6103d3565b6040516101589190611d28565b60405180910390f35b610169610434565b6040516101769190611dd3565b60405180910390f35b61019960048036038101906101949190611e2b565b6104c6565b6040516101a69190611e99565b60405180910390f35b6101c960048036038101906101c49190611ee0565b6104e2565b005b6101e560048036038101906101e09190611f20565b6104f8565b005b6101ef6105fa565b6040516101fc91906120cb565b60405180910390f35b61020d6106d5565b005b61022960048036038101906102249190611f20565b61072d565b005b61024560048036038101906102409190611e2b565b61074d565b6040516102529190611e99565b60405180910390f35b610275600480360381019061027091906120ed565b61075f565b6040516102829190612129565b60405180910390f35b610293610819565b005b61029d61082d565b6040516102aa9190611e99565b60405180910390f35b6102bb610857565b6040516102c89190611dd3565b60405180910390f35b6102eb60048036038101906102e69190612170565b6108e9565b005b6102f56108ff565b6040516103029190612129565b60405180910390f35b610325600480360381019061032091906122e5565b610909565b005b610341600480360381019061033c9190611e2b565b61092e565b60405161034e9190611dd3565b60405180910390f35b610371600480360381019061036c9190612368565b610a41565b60405161037e9190611d28565b60405180910390f35b6103a1600480360381019061039c9190612449565b610ad5565b6040516103ae9190612129565b60405180910390f35b6103d160048036038101906103cc91906120ed565b610b63565b005b6000634906490660e01b7bffffffffffffffffffffffffffffffffffffffffffffffffffffffff1916827bffffffffffffffffffffffffffffffffffffffffffffffffffffffff1916148061042d575061042c82610be9565b5b9050919050565b606060008054610443906124d4565b80601f016020809104026020016040519081016040528092919081815260200182805461046f906124d4565b80156104bc5780601f10610491576101008083540402835291602001916104bc565b820191906000526020600020905b81548152906001019060200180831161049f57829003601f168201915b5050505050905090565b60006104d182610ccb565b506104db82610d53565b9050919050565b6104f482826104ef610d90565b610d98565b5050565b600073ffffffffffffffffffffffffffffffffffffffff168273ffffffffffffffffffffffffffffffffffffffff160361056a5760006040517f64a0ae920000000000000000000000000000000000000000000000000000000081526004016105619190611e99565b60405180910390fd5b600061057e8383610579610d90565b610daa565b90508373ffffffffffffffffffffffffffffffffffffffff168173ffffffffffffffffffffffffffffffffffffffff16146105f4578382826040517f64283d7b0000000000000000000000000000000000000000000000000000000081526004016105eb93929190612505565b60405180910390fd5b50505050565b60606000600854905060008167ffffffffffffffff81111561061f5761061e6121ba565b5b60405190808252806020026020018201604052801561065857816020015b610645611c5a565b81526020019060019003908161063d5790505b50905060005b828110156106cc576000600182610675919061256b565b905060006106828261092e565b90506040518060400160405280838152602001828152508484815181106106ac576106ab61259f565b5b6020026020010181905250505080806106c4906125ce565b91505061065e565b50809250505090565b6106dd610fc4565b6106e561082d565b73ffffffffffffffffffffffffffffffffffffffff166108fc479081150290604051600060405180830381858888f1935050505015801561072a573d6000803e3d6000fd5b50565b61074883838360405180602001604052806000815250610909565b505050565b600061075882610ccb565b9050919050565b60008073ffffffffffffffffffffffffffffffffffffffff168273ffffffffffffffffffffffffffffffffffffffff16036107d25760006040517f89c62b640000000000000000000000000000000000000000000000000000000081526004016107c99190611e99565b60405180910390fd5b600360008373ffffffffffffffffffffffffffffffffffffffff1673ffffffffffffffffffffffffffffffffffffffff168152602001908152602001600020549050919050565b610821610fc4565b61082b600061104b565b565b6000600760009054906101000a900473ffffffffffffffffffffffffffffffffffffffff16905090565b606060018054610866906124d4565b80601f0160208091040260200160405190810160405280929190818152602001828054610892906124d4565b80156108df5780601f106108b4576101008083540402835291602001916108df565b820191906000526020600020905b8154815290600101906020018083116108c257829003601f168201915b5050505050905090565b6108fb6108f4610d90565b8383611111565b5050565b6000600854905090565b6109148484846104f8565b61092861091f610d90565b85858585611280565b50505050565b606061093982610ccb565b50600060066000848152602001908152602001600020805461095a906124d4565b80601f0160208091040260200160405190810160405280929190818152602001828054610986906124d4565b80156109d35780601f106109a8576101008083540402835291602001916109d3565b820191906000526020600020905b8154815290600101906020018083116109b657829003601f168201915b5050505050905060006109e4611431565b905060008151036109f9578192505050610a3c565b600082511115610a2e578082604051602001610a16929190612652565b60405160208183030381529060405292505050610a3c565b610a3784611448565b925050505b919050565b6000600560008473ffffffffffffffffffffffffffffffffffffffff1673ffffffffffffffffffffffffffffffffffffffff16815260200190815260200160002060008373ffffffffffffffffffffffffffffffffffffffff1673ffffffffffffffffffffffffffffffffffffffff16815260200190815260200160002060009054906101000a900460ff16905092915050565b600060086000815480929190610aea906125ce565b919050555060006008549050610b0084826114b1565b610b0a81846114cf565b808473ffffffffffffffffffffffffffffffffffffffff167fe7cd4ce7f2a465edc730269a1305e8a48bad821e8fb7e152ec413829c01a53c485604051610b519190611dd3565b60405180910390a38091505092915050565b610b6b610fc4565b600073ffffffffffffffffffffffffffffffffffffffff168173ffffffffffffffffffffffffffffffffffffffff1603610bdd5760006040517f1e4fbdf7000000000000000000000000000000000000000000000000000000008152600401610bd49190611e99565b60405180910390fd5b610be68161104b565b50565b60007f80ac58cd000000000000000000000000000000000000000000000000000000007bffffffffffffffffffffffffffffffffffffffffffffffffffffffff1916827bffffffffffffffffffffffffffffffffffffffffffffffffffffffff19161480610cb457507f5b5e139f000000000000000000000000000000000000000000000000000000007bffffffffffffffffffffffffffffffffffffffffffffffffffffffff1916827bffffffffffffffffffffffffffffffffffffffffffffffffffffffff1916145b80610cc45750610cc38261152b565b5b9050919050565b600080610cd783611595565b9050600073ffffffffffffffffffffffffffffffffffffffff168173ffffffffffffffffffffffffffffffffffffffff1603610d4a57826040517f7e273289000000000000000000000000000000000000000000000000000000008152600401610d419190612129565b60405180910390fd5b80915050919050565b60006004600083815260200190815260200160002060009054906101000a900473ffffffffffffffffffffffffffffffffffffffff169050919050565b600033905090565b610da583838360016115d2565b505050565b600080610db684611595565b9050600073ffffffffffffffffffffffffffffffffffffffff168373ffffffffffffffffffffffffffffffffffffffff1614610df857610df7818486611797565b5b600073ffffffffffffffffffffffffffffffffffffffff168173ffffffffffffffffffffffffffffffffffffffff1614610e8957610e3a6000856000806115d2565b6001600360008373ffffffffffffffffffffffffffffffffffffffff1673ffffffffffffffffffffffffffffffffffffffff168152602001908152602001600020600082825403925050819055505b600073ffffffffffffffffffffffffffffffffffffffff168573ffffffffffffffffffffffffffffffffffffffff1614610f0c576001600360008773ffffffffffffffffffffffffffffffffffffffff1673ffffffffffffffffffffffffffffffffffffffff168152602001908152602001600020600082825401925050819055505b846002600086815260200190815260200160002060006101000a81548173ffffffffffffffffffffffffffffffffffffffff021916908373ffffffffffffffffffffffffffffffffffffffff160217905550838573ffffffffffffffffffffffffffffffffffffffff168273ffffffffffffffffffffffffffffffffffffffff167fddf252ad1be2c89b69c2b068fc378daa952ba7f163c4a11628f55a4df523b3ef60405160405180910390a4809150509392505050565b610fcc610d90565b73ffffffffffffffffffffffffffffffffffffffff16610fea61082d565b73ffffffffffffffffffffffffffffffffffffffff16146110495761100d610d90565b6040517f118cdaa70000000000000000000000000000000000000000000000000000000081526004016110409190611e99565b60405180910390fd5b565b6000600760009054906101000a900473ffffffffffffffffffffffffffffffffffffffff16905081600760006101000a81548173ffffffffffffffffffffffffffffffffffffffff021916908373ffffffffffffffffffffffffffffffffffffffff1602179055508173ffffffffffffffffffffffffffffffffffffffff168173ffffffffffffffffffffffffffffffffffffffff167f8be0079c531659141344cd1fd0a4f28419497f9722a3daafe3b4186f6b6457e060405160405180910390a35050565b600073ffffffffffffffffffffffffffffffffffffffff168273ffffffffffffffffffffffffffffffffffffffff160361118257816040517f5b08ba180000000000000000000000000000000000000000000000000000000081526004016111799190611e99565b60405180910390fd5b80600560008573ffffffffffffffffffffffffffffffffffffffff1673ffffffffffffffffffffffffffffffffffffffff16815260200190815260200160002060008473ffffffffffffffffffffffffffffffffffffffff1673ffffffffffffffffffffffffffffffffffffffff16815260200190815260200160002060006101000a81548160ff0219169083151502179055508173ffffffffffffffffffffffffffffffffffffffff168373ffffffffffffffffffffffffffffffffffffffff167f17307eab39ab6107e8899845ad3d59bd9653f200f220920489ca2b5937696c31836040516112739190611d28565b60405180910390a3505050565b60008373ffffffffffffffffffffffffffffffffffffffff163b111561142a578273ffffffffffffffffffffffffffffffffffffffff1663150b7a02868685856040518563ffffffff1660e01b81526004016112df94939291906126cb565b6020604051808303816000875af192505050801561131b57506040513d601f19601f82011682018060405250810190611318919061272c565b60015b61139f573d806000811461134b576040519150601f19603f3d011682016040523d82523d6000602084013e611350565b606091505b50600081510361139757836040517f64a0ae9200000000000000000000000000000000000000000000000000000000815260040161138e9190611e99565b60405180910390fd5b805160208201fd5b63150b7a0260e01b7bffffffffffffffffffffffffffffffffffffffffffffffffffffffff1916817bffffffffffffffffffffffffffffffffffffffffffffffffffffffff19161461142857836040517f64a0ae9200000000000000000000000000000000000000000000000000000000815260040161141f9190611e99565b60405180910390fd5b505b5050505050565b606060405180602001604052806000815250905090565b606061145382610ccb565b50600061145e611431565b9050600081511161147e57604051806020016040528060008152506114a9565b806114888461185b565b604051602001611499929190612652565b6040516020818303038152906040525b915050919050565b6114cb828260405180602001604052806000815250611929565b5050565b806006600084815260200190815260200160002090816114ef9190612905565b507ff8e1a15aba9398e019f0b49df1a4fde98ee17ae345cb5f6b5e2c27f5033e8ce78260405161151f9190612129565b60405180910390a15050565b60007f01ffc9a7000000000000000000000000000000000000000000000000000000007bffffffffffffffffffffffffffffffffffffffffffffffffffffffff1916827bffffffffffffffffffffffffffffffffffffffffffffffffffffffff1916149050919050565b60006002600083815260200190815260200160002060009054906101000a900473ffffffffffffffffffffffffffffffffffffffff169050919050565b808061160b5750600073ffffffffffffffffffffffffffffffffffffffff168273ffffffffffffffffffffffffffffffffffffffff1614155b1561173f57600061161b84610ccb565b9050600073ffffffffffffffffffffffffffffffffffffffff168373ffffffffffffffffffffffffffffffffffffffff161415801561168657508273ffffffffffffffffffffffffffffffffffffffff168173ffffffffffffffffffffffffffffffffffffffff1614155b801561169957506116978184610a41565b155b156116db57826040517fa9fbf51f0000000000000000000000000000000000000000000000000000000081526004016116d29190611e99565b60405180910390fd5b811561173d57838573ffffffffffffffffffffffffffffffffffffffff168273ffffffffffffffffffffffffffffffffffffffff167f8c5be1e5ebec7d5bd14f71427d1e84f3dd0314c0f7b2291e5b200ac8c7c3b92560405160405180910390a45b505b836004600085815260200190815260200160002060006101000a81548173ffffffffffffffffffffffffffffffffffffffff021916908373ffffffffffffffffffffffffffffffffffffffff16021790555050505050565b6117a283838361194d565b61185657600073ffffffffffffffffffffffffffffffffffffffff168373ffffffffffffffffffffffffffffffffffffffff160361181757806040517f7e27328900000000000000000000000000000000000000000000000000000000815260040161180e9190612129565b60405180910390fd5b81816040517f177e802f00000000000000000000000000000000000000000000000000000000815260040161184d9291906129d7565b60405180910390fd5b505050565b60606000600161186a84611a0e565b01905060008167ffffffffffffffff811115611889576118886121ba565b5b6040519080825280601f01601f1916602001820160405280156118bb5781602001600182028036833780820191505090505b509050600082602083010190505b60011561191e578080600190039150507f3031323334353637383961626364656600000000000000000000000000000000600a86061a8153600a858161191257611911612a00565b5b049450600085036118c9575b819350505050919050565b6119338383611b61565b61194861193e610d90565b6000858585611280565b505050565b60008073ffffffffffffffffffffffffffffffffffffffff168373ffffffffffffffffffffffffffffffffffffffff1614158015611a0557508273ffffffffffffffffffffffffffffffffffffffff168473ffffffffffffffffffffffffffffffffffffffff1614806119c657506119c58484610a41565b5b80611a0457508273ffffffffffffffffffffffffffffffffffffffff166119ec83610d53565b73ffffffffffffffffffffffffffffffffffffffff16145b5b90509392505050565b600080600090507a184f03e93ff9f4daa797ed6e38ed64bf6a1f0100000000000000008310611a6c577a184f03e93ff9f4daa797ed6e38ed64bf6a1f0100000000000000008381611a6257611a61612a00565b5b0492506040810190505b6d04ee2d6d415b85acef81000000008310611aa9576d04ee2d6d415b85acef81000000008381611a9f57611a9e612a00565b5b0492506020810190505b662386f26fc100008310611ad857662386f26fc100008381611ace57611acd612a00565b5b0492506010810190505b6305f5e1008310611b01576305f5e1008381611af757611af6612a00565b5b0492506008810190505b6127108310611b26576127108381611b1c57611b1b612a00565b5b0492506004810190505b60648310611b495760648381611b3f57611b3e612a00565b5b0492506002810190505b600a8310611b58576001810190505b80915050919050565b600073ffffffffffffffffffffffffffffffffffffffff168273ffffffffffffffffffffffffffffffffffffffff1603611bd35760006040517f64a0ae92000000000000000000000000000000000000000000000000000000008152600401611bca9190611e99565b60405180910390fd5b6000611be183836000610daa565b9050600073ffffffffffffffffffffffffffffffffffffffff168173ffffffffffffffffffffffffffffffffffffffff1614611c555760006040517f73c6ac6e000000000000000000000000000000000000000000000000000000008152600401611c4c9190611e99565b60405180910390fd5b505050565b604051806040016040528060008152602001606081525090565b6000604051905090565b600080fd5b600080fd5b60007fffffffff0000000000000000000000000000000000000000000000000000000082169050919050565b611cbd81611c88565b8114611cc857600080fd5b50565b600081359050611cda81611cb4565b92915050565b600060208284031215611cf657611cf5611c7e565b5b6000611d0484828501611ccb565b91505092915050565b60008115159050919050565b611d2281611d0d565b82525050565b6000602082019050611d3d6000830184611d19565b92915050565b600081519050919050565b600082825260208201905092915050565b60005b83811015611d7d578082015181840152602081019050611d62565b60008484015250505050565b6000601f19601f8301169050919050565b6000611da582611d43565b611daf8185611d4e565b9350611dbf818560208601611d5f565b611dc881611d89565b840191505092915050565b60006020820190508181036000830152611ded8184611d9a565b905092915050565b6000819050919050565b611e0881611df5565b8114611e1357600080fd5b50565b600081359050611e2581611dff565b92915050565b600060208284031215611e4157611e40611c7e565b5b6000611e4f84828501611e16565b91505092915050565b600073ffffffffffffffffffffffffffffffffffffffff82169050919050565b6000611e8382611e58565b9050919050565b611e9381611e78565b82525050565b6000602082019050611eae6000830184611e8a565b92915050565b611ebd81611e78565b8114611ec857600080fd5b50565b600081359050611eda81611eb4565b92915050565b60008060408385031215611ef757611ef6611c7e565b5b6000611f0585828601611ecb565b9250506020611f1685828601611e16565b9150509250929050565b600080600060608486031215611f3957611f38611c7e565b5b6000611f4786828701611ecb565b9350506020611f5886828701611ecb565b9250506040611f6986828701611e16565b9150509250925092565b600081519050919050565b600082825260208201905092915050565b6000819050602082019050919050565b611fa881611df5565b82525050565b600082825260208201905092915050565b6000611fca82611d43565b611fd48185611fae565b9350611fe4818560208601611d5f565b611fed81611d89565b840191505092915050565b60006040830160008301516120106000860182611f9f565b50602083015184820360208601526120288282611fbf565b9150508091505092915050565b60006120418383611ff8565b905092915050565b6000602082019050919050565b600061206182611f73565b61206b8185611f7e565b93508360208202850161207d85611f8f565b8060005b858110156120b9578484038952815161209a8582612035565b94506120a583612049565b925060208a01995050600181019050612081565b50829750879550505050505092915050565b600060208201905081810360008301526120e58184612056565b905092915050565b60006020828403121561210357612102611c7e565b5b600061211184828501611ecb565b91505092915050565b61212381611df5565b82525050565b600060208201905061213e600083018461211a565b92915050565b61214d81611d0d565b811461215857600080fd5b50565b60008135905061216a81612144565b92915050565b6000806040838503121561218757612186611c7e565b5b600061219585828601611ecb565b92505060206121a68582860161215b565b9150509250929050565b600080fd5b600080fd5b7f4e487b7100000000000000000000000000000000000000000000000000000000600052604160045260246000fd5b6121f282611d89565b810181811067ffffffffffffffff82111715612211576122106121ba565b5b80604052505050565b6000612224611c74565b905061223082826121e9565b919050565b600067ffffffffffffffff8211156122505761224f6121ba565b5b61225982611d89565b9050602081019050919050565b82818337600083830152505050565b600061228861228384612235565b61221a565b9050828152602081018484840111156122a4576122a36121b5565b5b6122af848285612266565b509392505050565b600082601f8301126122cc576122cb6121b0565b5b81356122dc848260208601612275565b91505092915050565b600080600080608085870312156122ff576122fe611c7e565b5b600061230d87828801611ecb565b945050602061231e87828801611ecb565b935050604061232f87828801611e16565b925050606085013567ffffffffffffffff8111156123505761234f611c83565b5b61235c878288016122b7565b91505092959194509250565b6000806040838503121561237f5761237e611c7e565b5b600061238d85828601611ecb565b925050602061239e85828601611ecb565b9150509250929050565b600067ffffffffffffffff8211156123c3576123c26121ba565b5b6123cc82611d89565b9050602081019050919050565b60006123ec6123e7846123a8565b61221a565b905082815260208101848484011115612408576124076121b5565b5b612413848285612266565b509392505050565b600082601f8301126124305761242f6121b0565b5b81356124408482602086016123d9565b91505092915050565b600080604083850312156124605761245f611c7e565b5b600061246e85828601611ecb565b925050602083013567ffffffffffffffff81111561248f5761248e611c83565b5b61249b8582860161241b565b9150509250929050565b7f4e487b7100000000000000000000000000000000000000000000000000000000600052602260045260246000fd5b600060028204905060018216806124ec57607f821691505b6020821081036124ff576124fe6124a5565b5b50919050565b600060608201905061251a6000830186611e8a565b612527602083018561211a565b6125346040830184611e8a565b949350505050565b7f4e487b7100000000000000000000000000000000000000000000000000000000600052601160045260246000fd5b600061257682611df5565b915061258183611df5565b92508282019050808211156125995761259861253c565b5b92915050565b7f4e487b7100000000000000000000000000000000000000000000000000000000600052603260045260246000fd5b60006125d982611df5565b91507fffffffffffffffffffffffffffffffffffffffffffffffffffffffffffffffff820361260b5761260a61253c565b5b600182019050919050565b600081905092915050565b600061262c82611d43565b6126368185612616565b9350612646818560208601611d5f565b80840191505092915050565b600061265e8285612621565b915061266a8284612621565b91508190509392505050565b600081519050919050565b600082825260208201905092915050565b600061269d82612676565b6126a78185612681565b93506126b7818560208601611d5f565b6126c081611d89565b840191505092915050565b60006080820190506126e06000830187611e8a565b6126ed6020830186611e8a565b6126fa604083018561211a565b818103606083015261270c8184612692565b905095945050505050565b60008151905061272681611cb4565b92915050565b60006020828403121561274257612741611c7e565b5b600061275084828501612717565b91505092915050565b60008190508160005260206000209050919050565b60006020601f8301049050919050565b600082821b905092915050565b6000600883026127bb7fffffffffffffffffffffffffffffffffffffffffffffffffffffffffffffffff8261277e565b6127c5868361277e565b95508019841693508086168417925050509392505050565b6000819050919050565b60006128026127fd6127f884611df5565b6127dd565b611df5565b9050919050565b6000819050919050565b61281c836127e7565b61283061282882612809565b84845461278b565b825550505050565b600090565b612845612838565b612850818484612813565b505050565b5b818110156128745761286960008261283d565b600181019050612856565b5050565b601f8211156128b95761288a81612759565b6128938461276e565b810160208510156128a2578190505b6128b66128ae8561276e565b830182612855565b50505b505050565b600082821c905092915050565b60006128dc600019846008026128be565b1980831691505092915050565b60006128f583836128cb565b9150826002028217905092915050565b61290e82611d43565b67ffffffffffffffff811115612927576129266121ba565b5b61293182546124d4565b61293c828285612878565b600060209050601f83116001811461296f576000841561295d578287015190505b61296785826128e9565b8655506129cf565b601f19841661297d86612759565b60005b828110156129a557848901518255600182019150602085019450602081019050612980565b868310156129c257848901516129be601f8916826128cb565b8355505b6001600288020188555050505b505050505050565b60006040820190506129ec6000830185611e8a565b6129f9602083018461211a565b9392505050565b7f4e487b7100000000000000000000000000000000000000000000000000000000600052601260045260246000fdfea2646970667358221220b7588c0661a275dfe07dc42318edf31d01b026118866cd31365d33b8830aaee964736f6c63430008140033",
  "linkReferences": {},
  "deployedLinkReferences": {}
}